{
  "_format": "hh-sol-artifact-1",
  "contractName": "Secret",
  "sourceName": "contracts/Secret.sol",
  "abi": [
    {
      "anonymous": false,
      "inputs": [
        {
          "indexed": true,
          "internalType": "address",
          "name": "owner",
          "type": "address"
        },
        {
          "indexed": true,
          "internalType": "string",
          "name": "domain",
          "type": "string"
        }
      ],
      "name": "SecretDeleted",
      "type": "event"
    },
    {
      "anonymous": false,
      "inputs": [
        {
          "indexed": true,
          "internalType": "address",
          "name": "owner",
          "type": "address"
        },
        {
          "indexed": true,
          "internalType": "address",
          "name": "recipient",
          "type": "address"
        },
        {
          "indexed": true,
          "internalType": "string",
          "name": "domain",
          "type": "string"
        }
      ],
      "name": "SecretShared",
      "type": "event"
    },
    {
      "anonymous": false,
      "inputs": [
        {
          "indexed": true,
          "internalType": "address",
          "name": "owner",
          "type": "address"
        },
        {
          "indexed": true,
          "internalType": "string",
          "name": "domain",
          "type": "string"
        }
      ],
      "name": "SecretStored",
      "type": "event"
    },
    {
      "anonymous": false,
      "inputs": [
        {
          "indexed": true,
          "internalType": "address",
          "name": "owner",
          "type": "address"
        },
        {
          "indexed": true,
          "internalType": "string",
          "name": "domain",
          "type": "string"
        }
      ],
      "name": "SecretUpdated",
      "type": "event"
    },
    {
      "inputs": [
        {
          "internalType": "string",
          "name": "_domain",
          "type": "string"
        }
      ],
      "name": "deleteSecret",
      "outputs": [],
      "stateMutability": "nonpayable",
      "type": "function"
    },
    {
      "inputs": [],
      "name": "getSecrets",
      "outputs": [
        {
          "components": [
            {
              "internalType": "string",
              "name": "domain",
              "type": "string"
            },
            {
              "internalType": "string",
              "name": "secret",
              "type": "string"
            }
          ],
          "internalType": "struct Secret.Secret[]",
          "name": "",
          "type": "tuple[]"
        }
      ],
      "stateMutability": "view",
      "type": "function"
    },
    {
      "inputs": [
        {
          "internalType": "string",
          "name": "_domain",
          "type": "string"
        },
        {
          "internalType": "string",
          "name": "_secret",
          "type": "string"
        }
      ],
      "name": "setSecret",
      "outputs": [],
      "stateMutability": "nonpayable",
      "type": "function"
    },
    {
      "inputs": [
        {
          "internalType": "address",
          "name": "_recipient",
          "type": "address"
        },
        {
          "internalType": "string",
          "name": "_domain",
          "type": "string"
        }
      ],
      "name": "shareSecret",
      "outputs": [],
      "stateMutability": "nonpayable",
      "type": "function"
    }
  ],
  "bytecode": "0x608060405234801561001057600080fd5b50610f23806100206000396000f3fe608060405234801561001057600080fd5b506004361061004c5760003560e01c8063085724e0146100515780635fdb18a4146100665780637de04b3014610079578063996e2bee1461008c575b600080fd5b61006461005f366004610bb1565b6100aa565b005b610064610074366004610c1d565b61030f565b610064610087366004610c7e565b61058a565b610094610744565b6040516100a19190610d0d565b60405180910390f35b6000805b336000908152602081905260409020548110156101ec5785856040516020016100d8929190610d92565b60408051601f19818403018152918152815160209283012033600090815292839052912080548390811061010e5761010e610da2565b906000526020600020906002020160000160405160200161012f9190610df3565b6040516020818303038152906040528051906020012014156101da573360009081526020819052604090208054859185918490811061017057610170610da2565b9060005260206000209060020201600101919061018e9291906109a3565b506001915085856040516101a3929190610d92565b6040519081900381209033907fd311181d75b576b08c112b57606a7dec819b0acd8f7f2b5d3d853412f917535d90600090a36101ec565b806101e481610ea5565b9150506100ae565b508061030857336000908152602081815260409182902082516060601f89018490049093028101830184529283018781529092918291908990899081908501838280828437600092019190915250505090825250604080516020601f88018190048102820181019092528681529181019190879087908190840183828082843760009201829052509390945250508354600181018555938152602090819020835180519495600202909101936102a9935084929190910190610a27565b5060208281015180516102c29260018501920190610a27565b50505084846040516102d5929190610d92565b6040519081900381209033907fd6de55a3cf6ec784a6428bece468f00c076ee7d3fb66d212aef874f273bd16f890600090a35b5050505050565b600061031b83836108d0565b336000908152602081905260409020549091508114156103755760405162461bcd60e51b815260206004820152601060248201526f14d958dc995d081b9bdd08199bdd5b9960821b60448201526064015b60405180910390fd5b33600090815260208190526040812080548390811061039657610396610da2565b90600052602060002090600202016040518060400160405290816000820180546103bf90610db8565b80601f01602080910402602001604051908101604052809291908181526020018280546103eb90610db8565b80156104385780601f1061040d57610100808354040283529160200191610438565b820191906000526020600020905b81548152906001019060200180831161041b57829003601f168201915b5050505050815260200160018201805461045190610db8565b80601f016020809104026020016040519081016040528092919081815260200182805461047d90610db8565b80156104ca5780601f1061049f576101008083540402835291602001916104ca565b820191906000526020600020905b8154815290600101906020018083116104ad57829003601f168201915b505050919092525050506001600160a01b038616600090815260208181526040822080546001810182559083529181902083518051949550859460029094029091019261051a9284920190610a27565b5060208281015180516105339260018501920190610a27565b5050508383604051610546929190610d92565b604051908190038120906001600160a01b0387169033907f69ca23cd582a24ba9b145facb0e61b6360d065e1350bca8c06873881bab7f74a90600090a45050505050565b600061059683836108d0565b336000908152602081905260409020549091508114156105eb5760405162461bcd60e51b815260206004820152601060248201526f14d958dc995d081b9bdd08199bdd5b9960821b604482015260640161036c565b336000908152602081905260409020805461060890600190610ec0565b8154811061061857610618610da2565b9060005260206000209060020201600080336001600160a01b03166001600160a01b03168152602001908152602001600020828154811061065b5761065b610da2565b9060005260206000209060020201600082018160000190805461067d90610db8565b610688929190610a9b565b50600182018160010190805461069d90610db8565b6106a8929190610a9b565b50503360009081526020819052604090208054909150806106cb576106cb610ed7565b600082815260208120600019909201916002830201906106eb8282610b16565b6106f9600183016000610b16565b50509055828260405161070d929190610d92565b6040519081900381209033907f2fc47cd158b8e912511f280b040dd0ff2dac910fb2a5887c609800bffb428be590600090a3505050565b33600090815260208181526040808320805482518185028101850190935280835260609492939192909184015b828210156108c757838290600052602060002090600202016040518060400160405290816000820180546107a490610db8565b80601f01602080910402602001604051908101604052809291908181526020018280546107d090610db8565b801561081d5780601f106107f25761010080835404028352916020019161081d565b820191906000526020600020905b81548152906001019060200180831161080057829003601f168201915b5050505050815260200160018201805461083690610db8565b80601f016020809104026020016040519081016040528092919081815260200182805461086290610db8565b80156108af5780601f10610884576101008083540402835291602001916108af565b820191906000526020600020905b81548152906001019060200180831161089257829003601f168201915b50505050508152505081526020019060010190610771565b50505050905090565b6000805b3360009081526020819052604090205481101561098a5783836040516020016108fe929190610d92565b60408051601f19818403018152918152815160209283012033600090815292839052912080548390811061093457610934610da2565b90600052602060002090600202016000016040516020016109559190610df3565b60405160208183030381529060405280519060200120141561097857905061099d565b8061098281610ea5565b9150506108d4565b5050336000908152602081905260409020545b92915050565b8280546109af90610db8565b90600052602060002090601f0160209004810192826109d15760008555610a17565b82601f106109ea5782800160ff19823516178555610a17565b82800160010185558215610a17579182015b82811115610a175782358255916020019190600101906109fc565b50610a23929150610b53565b5090565b828054610a3390610db8565b90600052602060002090601f016020900481019282610a555760008555610a17565b82601f10610a6e57805160ff1916838001178555610a17565b82800160010185558215610a17579182015b82811115610a17578251825591602001919060010190610a80565b828054610aa790610db8565b90600052602060002090601f016020900481019282610ac95760008555610a17565b82601f10610ada5780548555610a17565b82800160010185558215610a1757600052602060002091601f016020900482015b82811115610a17578254825591600101919060010190610afb565b508054610b2290610db8565b6000825580601f10610b32575050565b601f016020900490600052602060002090810190610b509190610b53565b50565b5b80821115610a235760008155600101610b54565b60008083601f840112610b7a57600080fd5b50813567ffffffffffffffff811115610b9257600080fd5b602083019150836020828501011115610baa57600080fd5b9250929050565b60008060008060408587031215610bc757600080fd5b843567ffffffffffffffff80821115610bdf57600080fd5b610beb88838901610b68565b90965094506020870135915080821115610c0457600080fd5b50610c1187828801610b68565b95989497509550505050565b600080600060408486031215610c3257600080fd5b83356001600160a01b0381168114610c4957600080fd5b9250602084013567ffffffffffffffff811115610c6557600080fd5b610c7186828701610b68565b9497909650939450505050565b60008060208385031215610c9157600080fd5b823567ffffffffffffffff811115610ca857600080fd5b610cb485828601610b68565b90969095509350505050565b6000815180845260005b81811015610ce657602081850181015186830182015201610cca565b81811115610cf8576000602083870101525b50601f01601f19169290920160200192915050565b60006020808301818452808551808352604092508286019150828160051b87010184880160005b83811015610d8457888303603f1901855281518051878552610d5888860182610cc0565b91890151858303868b0152919050610d708183610cc0565b968901969450505090860190600101610d34565b509098975050505050505050565b8183823760009101908152919050565b634e487b7160e01b600052603260045260246000fd5b600181811c90821680610dcc57607f821691505b60208210811415610ded57634e487b7160e01b600052602260045260246000fd5b50919050565b600080835481600182811c915080831680610e0f57607f831692505b6020808410821415610e2f57634e487b7160e01b86526022600452602486fd5b818015610e435760018114610e5457610e81565b60ff19861689528489019650610e81565b60008a81526020902060005b86811015610e795781548b820152908501908301610e60565b505084890196505b509498975050505050505050565b634e487b7160e01b600052601160045260246000fd5b6000600019821415610eb957610eb9610e8f565b5060010190565b600082821015610ed257610ed2610e8f565b500390565b634e487b7160e01b600052603160045260246000fdfea26469706673582212208311f9f781b8f5e73fd8b3691a84a0e6dda07184911430f3e575aafd7d9cbca464736f6c63430008090033",
  "linkReferences": {},
  "deployedLinkReferences": {}
}